{
  "contractName": "Healthcare",
  "abi": [
    {
      "anonymous": false,
      "inputs": [
        {
          "indexed": true,
          "internalType": "uint256",
          "name": "_ehrId",
          "type": "uint256"
        }
      ],
      "name": "ehrCreated",
      "type": "event"
    },
    {
      "anonymous": false,
      "inputs": [
        {
          "indexed": true,
          "internalType": "uint256",
          "name": "_userId",
          "type": "uint256"
        }
      ],
      "name": "userCreated",
      "type": "event"
    },
    {
      "inputs": [],
      "name": "ehrCount",
      "outputs": [
        {
          "internalType": "uint256",
          "name": "",
          "type": "uint256"
        }
      ],
      "stateMutability": "view",
      "type": "function",
      "constant": true
    },
    {
      "inputs": [
        {
          "internalType": "uint256",
          "name": "",
          "type": "uint256"
        }
      ],
      "name": "ehrList",
      "outputs": [
        {
          "internalType": "string",
          "name": "username",
          "type": "string"
        },
        {
          "internalType": "string",
          "name": "doctorname",
          "type": "string"
        },
        {
          "internalType": "string",
          "name": "disease_details",
          "type": "string"
        },
        {
          "internalType": "string",
          "name": "report",
          "type": "string"
        },
        {
          "internalType": "string",
          "name": "prescription",
          "type": "string"
        },
        {
          "internalType": "string",
          "name": "ehr_date",
          "type": "string"
        }
      ],
      "stateMutability": "view",
      "type": "function",
      "constant": true
    },
    {
      "inputs": [],
      "name": "userCount",
      "outputs": [
        {
          "internalType": "uint256",
          "name": "",
          "type": "uint256"
        }
      ],
      "stateMutability": "view",
      "type": "function",
      "constant": true
    },
    {
      "inputs": [
        {
          "internalType": "uint256",
          "name": "",
          "type": "uint256"
        }
      ],
      "name": "userList",
      "outputs": [
        {
          "internalType": "string",
          "name": "username",
          "type": "string"
        },
        {
          "internalType": "string",
          "name": "password",
          "type": "string"
        },
        {
          "internalType": "string",
          "name": "phone",
          "type": "string"
        },
        {
          "internalType": "string",
          "name": "email",
          "type": "string"
        },
        {
          "internalType": "string",
          "name": "home_address",
          "type": "string"
        },
        {
          "internalType": "string",
          "name": "desc",
          "type": "string"
        },
        {
          "internalType": "string",
          "name": "usertype",
          "type": "string"
        }
      ],
      "stateMutability": "view",
      "type": "function",
      "constant": true
    },
    {
      "inputs": [
        {
          "internalType": "string",
          "name": "uname",
          "type": "string"
        },
        {
          "internalType": "string",
          "name": "pass",
          "type": "string"
        },
        {
          "internalType": "string",
          "name": "phone",
          "type": "string"
        },
        {
          "internalType": "string",
          "name": "emailid",
          "type": "string"
        },
        {
          "internalType": "string",
          "name": "homes_address",
          "type": "string"
        },
        {
          "internalType": "string",
          "name": "desc",
          "type": "string"
        },
        {
          "internalType": "string",
          "name": "utype",
          "type": "string"
        }
      ],
      "name": "saveUser",
      "outputs": [],
      "stateMutability": "nonpayable",
      "type": "function"
    },
    {
      "inputs": [],
      "name": "getUserCount",
      "outputs": [
        {
          "internalType": "uint256",
          "name": "",
          "type": "uint256"
        }
      ],
      "stateMutability": "view",
      "type": "function",
      "constant": true
    },
    {
      "inputs": [
        {
          "internalType": "string",
          "name": "uname",
          "type": "string"
        },
        {
          "internalType": "string",
          "name": "doctor",
          "type": "string"
        },
        {
          "internalType": "string",
          "name": "disease",
          "type": "string"
        },
        {
          "internalType": "string",
          "name": "report",
          "type": "string"
        },
        {
          "internalType": "string",
          "name": "pres",
          "type": "string"
        },
        {
          "internalType": "string",
          "name": "edate",
          "type": "string"
        }
      ],
      "name": "saveEhr",
      "outputs": [],
      "stateMutability": "nonpayable",
      "type": "function"
    },
    {
      "inputs": [
        {
          "internalType": "uint256",
          "name": "i",
          "type": "uint256"
        },
        {
          "internalType": "string",
          "name": "pres",
          "type": "string"
        }
      ],
      "name": "updatePrescription",
      "outputs": [],
      "stateMutability": "nonpayable",
      "type": "function"
    },
    {
      "inputs": [],
      "name": "getEhrCount",
      "outputs": [
        {
          "internalType": "uint256",
          "name": "",
          "type": "uint256"
        }
      ],
      "stateMutability": "view",
      "type": "function",
      "constant": true
    },
    {
      "inputs": [
        {
          "internalType": "uint256",
          "name": "i",
          "type": "uint256"
        }
      ],
      "name": "getUsername",
      "outputs": [
        {
          "internalType": "string",
          "name": "",
          "type": "string"
        }
      ],
      "stateMutability": "view",
      "type": "function",
      "constant": true
    },
    {
      "inputs": [
        {
          "internalType": "uint256",
          "name": "i",
          "type": "uint256"
        }
      ],
      "name": "getPassword",
      "outputs": [
        {
          "internalType": "string",
          "name": "",
          "type": "string"
        }
      ],
      "stateMutability": "view",
      "type": "function",
      "constant": true
    },
    {
      "inputs": [
        {
          "internalType": "uint256",
          "name": "i",
          "type": "uint256"
        }
      ],
      "name": "getPhone",
      "outputs": [
        {
          "internalType": "string",
          "name": "",
          "type": "string"
        }
      ],
      "stateMutability": "view",
      "type": "function",
      "constant": true
    },
    {
      "inputs": [
        {
          "internalType": "uint256",
          "name": "i",
          "type": "uint256"
        }
      ],
      "name": "getEmail",
      "outputs": [
        {
          "internalType": "string",
          "name": "",
          "type": "string"
        }
      ],
      "stateMutability": "view",
      "type": "function",
      "constant": true
    },
    {
      "inputs": [
        {
          "internalType": "uint256",
          "name": "i",
          "type": "uint256"
        }
      ],
      "name": "getAddress",
      "outputs": [
        {
          "internalType": "string",
          "name": "",
          "type": "string"
        }
      ],
      "stateMutability": "view",
      "type": "function",
      "constant": true
    },
    {
      "inputs": [
        {
          "internalType": "uint256",
          "name": "i",
          "type": "uint256"
        }
      ],
      "name": "getDescription",
      "outputs": [
        {
          "internalType": "string",
          "name": "",
          "type": "string"
        }
      ],
      "stateMutability": "view",
      "type": "function",
      "constant": true
    },
    {
      "inputs": [
        {
          "internalType": "uint256",
          "name": "i",
          "type": "uint256"
        }
      ],
      "name": "getUserType",
      "outputs": [
        {
          "internalType": "string",
          "name": "",
          "type": "string"
        }
      ],
      "stateMutability": "view",
      "type": "function",
      "constant": true
    },
    {
      "inputs": [
        {
          "internalType": "uint256",
          "name": "i",
          "type": "uint256"
        }
      ],
      "name": "getPatient",
      "outputs": [
        {
          "internalType": "string",
          "name": "",
          "type": "string"
        }
      ],
      "stateMutability": "view",
      "type": "function",
      "constant": true
    },
    {
      "inputs": [
        {
          "internalType": "uint256",
          "name": "i",
          "type": "uint256"
        }
      ],
      "name": "getDoctor",
      "outputs": [
        {
          "internalType": "string",
          "name": "",
          "type": "string"
        }
      ],
      "stateMutability": "view",
      "type": "function",
      "constant": true
    },
    {
      "inputs": [
        {
          "internalType": "uint256",
          "name": "i",
          "type": "uint256"
        }
      ],
      "name": "getDisease",
      "outputs": [
        {
          "internalType": "string",
          "name": "",
          "type": "string"
        }
      ],
      "stateMutability": "view",
      "type": "function",
      "constant": true
    },
    {
      "inputs": [
        {
          "internalType": "uint256",
          "name": "i",
          "type": "uint256"
        }
      ],
      "name": "getReport",
      "outputs": [
        {
          "internalType": "string",
          "name": "",
          "type": "string"
        }
      ],
      "stateMutability": "view",
      "type": "function",
      "constant": true
    },
    {
      "inputs": [
        {
          "internalType": "uint256",
          "name": "i",
          "type": "uint256"
        }
      ],
      "name": "getPrescription",
      "outputs": [
        {
          "internalType": "string",
          "name": "",
          "type": "string"
        }
      ],
      "stateMutability": "view",
      "type": "function",
      "constant": true
    },
    {
      "inputs": [
        {
          "internalType": "uint256",
          "name": "i",
          "type": "uint256"
        }
      ],
      "name": "getEhrDate",
      "outputs": [
        {
          "internalType": "string",
          "name": "",
          "type": "string"
        }
      ],
      "stateMutability": "view",
      "type": "function",
      "constant": true
    }
  ],
  "bytecode": "0x608060405260008055600060025534801561001957600080fd5b506142a1806100296000396000f3fe608060405234801561001057600080fd5b506004361061015e576000357c0100000000000000000000000000000000000000000000000000000000900480637cd7710d116100d5578063b5cb15f711610099578063b5cb15f7146102a5578063b9260a80146102ad578063b93f9b0a146102d2578063bb36bf9d146102e5578063f18d18cc146102f8578063f38c6bb61461030b57600080fd5b80637cd7710d1461023d5780637d3a679614610246578063972fe8bc146102595780639b51ebe41461026c5780639f4216e81461027f57600080fd5b806313f58f711161012757806313f58f71146101cb5780632e7d44b5146101de5780634925ec55146101f15780634e7f9b191461020457806369b0a72d146102175780636f16af101461022a57600080fd5b8062667c4c1461016357806307973ccf1461017a57806307a6af65146101835780630beca10e146101985780630e130115146101b8575b600080fd5b6002545b6040519081526020015b60405180910390f35b61016760005481565b610196610191366004613de5565b61031e565b005b6101ab6101a6366004613eda565b61044a565b6040516101719190613f40565b6101966101c6366004613f5a565b6107e4565b6101ab6101d9366004613eda565b61080e565b6101ab6101ec366004613eda565b610c3a565b6101ab6101ff366004613eda565b610fd8565b6101ab610212366004613eda565b611404565b6101ab610225366004613eda565b61179e565b6101ab610238366004613eda565b611b38565b61016760025481565b6101ab610254366004613eda565b611ed2565b6101ab610267366004613eda565b61226a565b61019661027a366004613fa1565b612608565b61029261028d366004613eda565b612754565b60405161017197969594939291906140bc565b600054610167565b6102c06102bb366004613eda565b612b46565b60405161017196959493929190614153565b6101ab6102e0366004613eda565b612eaa565b6101ab6102f3366004613eda565b613248565b6101ab610306366004613eda565b613554565b6101ab610319366004613eda565b6138f2565b6040805160c0810182528781526020808201889052818301879052606082018690526080820185905260a082018490526002546000908152600382529290922081518051929391926103739284920190613c90565b50602082810151805161038c9260018501920190613c90565b50604082015180516103a8916002840191602090910190613c90565b50606082015180516103c4916003840191602090910190613c90565b50608082015180516103e0916004840191602090910190613c90565b5060a082015180516103fc916005840191602090910190613c90565b50506002546040519091507ffc8089ba84edfb52e537a969d5325cf3caecf19fb6e963c7c36d208b0ca49f9b90600090a26002805490600061043d836141d5565b9190505550505050505050565b60606000600360008481526020019081526020016000206040518060c001604052908160008201805461047c90614217565b80601f01602080910402602001604051908101604052809291908181526020018280546104a890614217565b80156104f55780601f106104ca576101008083540402835291602001916104f5565b820191906000526020600020905b8154815290600101906020018083116104d857829003601f168201915b5050505050815260200160018201805461050e90614217565b80601f016020809104026020016040519081016040528092919081815260200182805461053a90614217565b80156105875780601f1061055c57610100808354040283529160200191610587565b820191906000526020600020905b81548152906001019060200180831161056a57829003601f168201915b505050505081526020016002820180546105a090614217565b80601f01602080910402602001604051908101604052809291908181526020018280546105cc90614217565b80156106195780601f106105ee57610100808354040283529160200191610619565b820191906000526020600020905b8154815290600101906020018083116105fc57829003601f168201915b5050505050815260200160038201805461063290614217565b80601f016020809104026020016040519081016040528092919081815260200182805461065e90614217565b80156106ab5780601f10610680576101008083540402835291602001916106ab565b820191906000526020600020905b81548152906001019060200180831161068e57829003601f168201915b505050505081526020016004820180546106c490614217565b80601f01602080910402602001604051908101604052809291908181526020018280546106f090614217565b801561073d5780601f106107125761010080835404028352916020019161073d565b820191906000526020600020905b81548152906001019060200180831161072057829003601f168201915b5050505050815260200160058201805461075690614217565b80601f016020809104026020016040519081016040528092919081815260200182805461078290614217565b80156107cf5780601f106107a4576101008083540402835291602001916107cf565b820191906000526020600020905b8154815290600101906020018083116107b257829003601f168201915b50505091909252505050604001519392505050565b6000828152600360209081526040909120825161080992600490920191840190613c90565b505050565b60606000600160008481526020019081526020016000206040518060e001604052908160008201805461084090614217565b80601f016020809104026020016040519081016040528092919081815260200182805461086c90614217565b80156108b95780601f1061088e576101008083540402835291602001916108b9565b820191906000526020600020905b81548152906001019060200180831161089c57829003601f168201915b505050505081526020016001820180546108d290614217565b80601f01602080910402602001604051908101604052809291908181526020018280546108fe90614217565b801561094b5780601f106109205761010080835404028352916020019161094b565b820191906000526020600020905b81548152906001019060200180831161092e57829003601f168201915b5050505050815260200160028201805461096490614217565b80601f016020809104026020016040519081016040528092919081815260200182805461099090614217565b80156109dd5780601f106109b2576101008083540402835291602001916109dd565b820191906000526020600020905b8154815290600101906020018083116109c057829003601f168201915b505050505081526020016003820180546109f690614217565b80601f0160208091040260200160405190810160405280929190818152602001828054610a2290614217565b8015610a6f5780601f10610a4457610100808354040283529160200191610a6f565b820191906000526020600020905b815481529060010190602001808311610a5257829003601f168201915b50505050508152602001600482018054610a8890614217565b80601f0160208091040260200160405190810160405280929190818152602001828054610ab490614217565b8015610b015780601f10610ad657610100808354040283529160200191610b01565b820191906000526020600020905b815481529060010190602001808311610ae457829003601f168201915b50505050508152602001600582018054610b1a90614217565b80601f0160208091040260200160405190810160405280929190818152602001828054610b4690614217565b8015610b935780601f10610b6857610100808354040283529160200191610b93565b820191906000526020600020905b815481529060010190602001808311610b7657829003601f168201915b50505050508152602001600682018054610bac90614217565b80601f0160208091040260200160405190810160405280929190818152602001828054610bd890614217565b8015610c255780601f10610bfa57610100808354040283529160200191610c25565b820191906000526020600020905b815481529060010190602001808311610c0857829003601f168201915b5050509190925250505060c001519392505050565b60606000600160008481526020019081526020016000206040518060e0016040529081600082018054610c6c90614217565b80601f0160208091040260200160405190810160405280929190818152602001828054610c9890614217565b8015610ce55780601f10610cba57610100808354040283529160200191610ce5565b820191906000526020600020905b815481529060010190602001808311610cc857829003601f168201915b50505050508152602001600182018054610cfe90614217565b80601f0160208091040260200160405190810160405280929190818152602001828054610d2a90614217565b8015610d775780601f10610d4c57610100808354040283529160200191610d77565b820191906000526020600020905b815481529060010190602001808311610d5a57829003601f168201915b50505050508152602001600282018054610d9090614217565b80601f0160208091040260200160405190810160405280929190818152602001828054610dbc90614217565b8015610e095780601f10610dde57610100808354040283529160200191610e09565b820191906000526020600020905b815481529060010190602001808311610dec57829003601f168201915b50505050508152602001600382018054610e2290614217565b80601f0160208091040260200160405190810160405280929190818152602001828054610e4e90614217565b8015610e9b5780601f10610e7057610100808354040283529160200191610e9b565b820191906000526020600020905b815481529060010190602001808311610e7e57829003601f168201915b50505050508152602001600482018054610eb490614217565b80601f0160208091040260200160405190810160405280929190818152602001828054610ee090614217565b8015610f2d5780601f10610f0257610100808354040283529160200191610f2d565b820191906000526020600020905b815481529060010190602001808311610f1057829003601f168201915b50505050508152602001600582018054610f4690614217565b80601f0160208091040260200160405190810160405280929190818152602001828054610f7290614217565b8015610fbf5780601f10610f9457610100808354040283529160200191610fbf565b820191906000526020600020905b815481529060010190602001808311610fa257829003601f168201915b5050505050815260200160068201805461075690614217565b60606000600160008481526020019081526020016000206040518060e001604052908160008201805461100a90614217565b80601f016020809104026020016040519081016040528092919081815260200182805461103690614217565b80156110835780601f1061105857610100808354040283529160200191611083565b820191906000526020600020905b81548152906001019060200180831161106657829003601f168201915b5050505050815260200160018201805461109c90614217565b80601f01602080910402602001604051908101604052809291908181526020018280546110c890614217565b80156111155780601f106110ea57610100808354040283529160200191611115565b820191906000526020600020905b8154815290600101906020018083116110f857829003601f168201915b5050505050815260200160028201805461112e90614217565b80601f016020809104026020016040519081016040528092919081815260200182805461115a90614217565b80156111a75780601f1061117c576101008083540402835291602001916111a7565b820191906000526020600020905b81548152906001019060200180831161118a57829003601f168201915b505050505081526020016003820180546111c090614217565b80601f01602080910402602001604051908101604052809291908181526020018280546111ec90614217565b80156112395780601f1061120e57610100808354040283529160200191611239565b820191906000526020600020905b81548152906001019060200180831161121c57829003601f168201915b5050505050815260200160048201805461125290614217565b80601f016020809104026020016040519081016040528092919081815260200182805461127e90614217565b80156112cb5780601f106112a0576101008083540402835291602001916112cb565b820191906000526020600020905b8154815290600101906020018083116112ae57829003601f168201915b505050505081526020016005820180546112e490614217565b80601f016020809104026020016040519081016040528092919081815260200182805461131090614217565b801561135d5780601f106113325761010080835404028352916020019161135d565b820191906000526020600020905b81548152906001019060200180831161134057829003601f168201915b5050505050815260200160068201805461137690614217565b80601f01602080910402602001604051908101604052809291908181526020018280546113a290614217565b80156113ef5780601f106113c4576101008083540402835291602001916113ef565b820191906000526020600020905b8154815290600101906020018083116113d257829003601f168201915b5050509190925250505060a001519392505050565b60606000600360008481526020019081526020016000206040518060c001604052908160008201805461143690614217565b80601f016020809104026020016040519081016040528092919081815260200182805461146290614217565b80156114af5780601f10611484576101008083540402835291602001916114af565b820191906000526020600020905b81548152906001019060200180831161149257829003601f168201915b505050505081526020016001820180546114c890614217565b80601f01602080910402602001604051908101604052809291908181526020018280546114f490614217565b80156115415780601f1061151657610100808354040283529160200191611541565b820191906000526020600020905b81548152906001019060200180831161152457829003601f168201915b5050505050815260200160028201805461155a90614217565b80601f016020809104026020016040519081016040528092919081815260200182805461158690614217565b80156115d35780601f106115a8576101008083540402835291602001916115d3565b820191906000526020600020905b8154815290600101906020018083116115b657829003601f168201915b505050505081526020016003820180546115ec90614217565b80601f016020809104026020016040519081016040528092919081815260200182805461161890614217565b80156116655780601f1061163a57610100808354040283529160200191611665565b820191906000526020600020905b81548152906001019060200180831161164857829003601f168201915b5050505050815260200160048201805461167e90614217565b80601f01602080910402602001604051908101604052809291908181526020018280546116aa90614217565b80156116f75780601f106116cc576101008083540402835291602001916116f7565b820191906000526020600020905b8154815290600101906020018083116116da57829003601f168201915b5050505050815260200160058201805461171090614217565b80601f016020809104026020016040519081016040528092919081815260200182805461173c90614217565b80156117895780601f1061175e57610100808354040283529160200191611789565b820191906000526020600020905b81548152906001019060200180831161176c57829003601f168201915b50505091909252505050606001519392505050565b60606000600360008481526020019081526020016000206040518060c00160405290816000820180546117d090614217565b80601f01602080910402602001604051908101604052809291908181526020018280546117fc90614217565b80156118495780601f1061181e57610100808354040283529160200191611849565b820191906000526020600020905b81548152906001019060200180831161182c57829003601f168201915b5050505050815260200160018201805461186290614217565b80601f016020809104026020016040519081016040528092919081815260200182805461188e90614217565b80156118db5780601f106118b0576101008083540402835291602001916118db565b820191906000526020600020905b8154815290600101906020018083116118be57829003601f168201915b505050505081526020016002820180546118f490614217565b80601f016020809104026020016040519081016040528092919081815260200182805461192090614217565b801561196d5780601f106119425761010080835404028352916020019161196d565b820191906000526020600020905b81548152906001019060200180831161195057829003601f168201915b5050505050815260200160038201805461198690614217565b80601f01602080910402602001604051908101604052809291908181526020018280546119b290614217565b80156119ff5780601f106119d4576101008083540402835291602001916119ff565b820191906000526020600020905b8154815290600101906020018083116119e257829003601f168201915b50505050508152602001600482018054611a1890614217565b80601f0160208091040260200160405190810160405280929190818152602001828054611a4490614217565b8015611a915780601f10611a6657610100808354040283529160200191611a91565b820191906000526020600020905b815481529060010190602001808311611a7457829003601f168201915b50505050508152602001600582018054611aaa90614217565b80601f0160208091040260200160405190810160405280929190818152602001828054611ad690614217565b8015611b235780601f10611af857610100808354040283529160200191611b23565b820191906000526020600020905b815481529060010190602001808311611b0657829003601f168201915b50505091909252505050602001519392505050565b60606000600360008481526020019081526020016000206040518060c0016040529081600082018054611b6a90614217565b80601f0160208091040260200160405190810160405280929190818152602001828054611b9690614217565b8015611be35780601f10611bb857610100808354040283529160200191611be3565b820191906000526020600020905b815481529060010190602001808311611bc657829003601f168201915b50505050508152602001600182018054611bfc90614217565b80601f0160208091040260200160405190810160405280929190818152602001828054611c2890614217565b8015611c755780601f10611c4a57610100808354040283529160200191611c75565b820191906000526020600020905b815481529060010190602001808311611c5857829003601f168201915b50505050508152602001600282018054611c8e90614217565b80601f0160208091040260200160405190810160405280929190818152602001828054611cba90614217565b8015611d075780601f10611cdc57610100808354040283529160200191611d07565b820191906000526020600020905b815481529060010190602001808311611cea57829003601f168201915b50505050508152602001600382018054611d2090614217565b80601f0160208091040260200160405190810160405280929190818152602001828054611d4c90614217565b8015611d995780601f10611d6e57610100808354040283529160200191611d99565b820191906000526020600020905b815481529060010190602001808311611d7c57829003601f168201915b50505050508152602001600482018054611db290614217565b80601f0160208091040260200160405190810160405280929190818152602001828054611dde90614217565b8015611e2b5780601f10611e0057610100808354040283529160200191611e2b565b820191906000526020600020905b815481529060010190602001808311611e0e57829003601f168201915b50505050508152602001600582018054611e4490614217565b80601f0160208091040260200160405190810160405280929190818152602001828054611e7090614217565b8015611ebd5780601f10611e9257610100808354040283529160200191611ebd565b820191906000526020600020905b815481529060010190602001808311611ea057829003601f168201915b50505091909252505050608001519392505050565b60606000600360008481526020019081526020016000206040518060c0016040529081600082018054611f0490614217565b80601f0160208091040260200160405190810160405280929190818152602001828054611f3090614217565b8015611f7d5780601f10611f5257610100808354040283529160200191611f7d565b820191906000526020600020905b815481529060010190602001808311611f6057829003601f168201915b50505050508152602001600182018054611f9690614217565b80601f0160208091040260200160405190810160405280929190818152602001828054611fc290614217565b801561200f5780601f10611fe45761010080835404028352916020019161200f565b820191906000526020600020905b815481529060010190602001808311611ff257829003601f168201915b5050505050815260200160028201805461202890614217565b80601f016020809104026020016040519081016040528092919081815260200182805461205490614217565b80156120a15780601f10612076576101008083540402835291602001916120a1565b820191906000526020600020905b81548152906001019060200180831161208457829003601f168201915b505050505081526020016003820180546120ba90614217565b80601f01602080910402602001604051908101604052809291908181526020018280546120e690614217565b80156121335780601f1061210857610100808354040283529160200191612133565b820191906000526020600020905b81548152906001019060200180831161211657829003601f168201915b5050505050815260200160048201805461214c90614217565b80601f016020809104026020016040519081016040528092919081815260200182805461217890614217565b80156121c55780601f1061219a576101008083540402835291602001916121c5565b820191906000526020600020905b8154815290600101906020018083116121a857829003601f168201915b505050505081526020016005820180546121de90614217565b80601f016020809104026020016040519081016040528092919081815260200182805461220a90614217565b80156122575780601f1061222c57610100808354040283529160200191612257565b820191906000526020600020905b81548152906001019060200180831161223a57829003601f168201915b5050509190925250509051949350505050565b60606000600160008481526020019081526020016000206040518060e001604052908160008201805461229c90614217565b80601f01602080910402602001604051908101604052809291908181526020018280546122c890614217565b80156123155780601f106122ea57610100808354040283529160200191612315565b820191906000526020600020905b8154815290600101906020018083116122f857829003601f168201915b5050505050815260200160018201805461232e90614217565b80601f016020809104026020016040519081016040528092919081815260200182805461235a90614217565b80156123a75780601f1061237c576101008083540402835291602001916123a7565b820191906000526020600020905b81548152906001019060200180831161238a57829003601f168201915b505050505081526020016002820180546123c090614217565b80601f01602080910402602001604051908101604052809291908181526020018280546123ec90614217565b80156124395780601f1061240e57610100808354040283529160200191612439565b820191906000526020600020905b81548152906001019060200180831161241c57829003601f168201915b5050505050815260200160038201805461245290614217565b80601f016020809104026020016040519081016040528092919081815260200182805461247e90614217565b80156124cb5780601f106124a0576101008083540402835291602001916124cb565b820191906000526020600020905b8154815290600101906020018083116124ae57829003601f168201915b505050505081526020016004820180546124e490614217565b80601f016020809104026020016040519081016040528092919081815260200182805461251090614217565b801561255d5780601f106125325761010080835404028352916020019161255d565b820191906000526020600020905b81548152906001019060200180831161254057829003601f168201915b5050505050815260200160058201805461257690614217565b80601f01602080910402602001604051908101604052809291908181526020018280546125a290614217565b80156125ef5780601f106125c4576101008083540402835291602001916125ef565b820191906000526020600020905b8154815290600101906020018083116125d257829003601f168201915b5050505050815260200160068201805461171090614217565b6040805160e0810182528881526020808201899052818301889052606082018790526080820186905260a0820185905260c08201849052600080548152600182529290922081518051929391926126629284920190613c90565b50602082810151805161267b9260018501920190613c90565b5060408201518051612697916002840191602090910190613c90565b50606082015180516126b3916003840191602090910190613c90565b50608082015180516126cf916004840191602090910190613c90565b5060a082015180516126eb916005840191602090910190613c90565b5060c08201518051612707916006840191602090910190613c90565b5050600080546040519092507f1ed675bb725b3a8b0434b9ee956fe05e4c0e79f9dc67c3f1a717a5bb1fd88fd39190a2600080549080612746836141d5565b919050555050505050505050565b60016020526000908152604090208054819061276f90614217565b80601f016020809104026020016040519081016040528092919081815260200182805461279b90614217565b80156127e85780601f106127bd576101008083540402835291602001916127e8565b820191906000526020600020905b8154815290600101906020018083116127cb57829003601f168201915b5050505050908060010180546127fd90614217565b80601f016020809104026020016040519081016040528092919081815260200182805461282990614217565b80156128765780601f1061284b57610100808354040283529160200191612876565b820191906000526020600020905b81548152906001019060200180831161285957829003601f168201915b50505050509080600201805461288b90614217565b80601f01602080910402602001604051908101604052809291908181526020018280546128b790614217565b80156129045780601f106128d957610100808354040283529160200191612904565b820191906000526020600020905b8154815290600101906020018083116128e757829003601f168201915b50505050509080600301805461291990614217565b80601f016020809104026020016040519081016040528092919081815260200182805461294590614217565b80156129925780601f1061296757610100808354040283529160200191612992565b820191906000526020600020905b81548152906001019060200180831161297557829003601f168201915b5050505050908060040180546129a790614217565b80601f01602080910402602001604051908101604052809291908181526020018280546129d390614217565b8015612a205780601f106129f557610100808354040283529160200191612a20565b820191906000526020600020905b815481529060010190602001808311612a0357829003601f168201915b505050505090806005018054612a3590614217565b80601f0160208091040260200160405190810160405280929190818152602001828054612a6190614217565b8015612aae5780601f10612a8357610100808354040283529160200191612aae565b820191906000526020600020905b815481529060010190602001808311612a9157829003601f168201915b505050505090806006018054612ac390614217565b80601f0160208091040260200160405190810160405280929190818152602001828054612aef90614217565b8015612b3c5780601f10612b1157610100808354040283529160200191612b3c565b820191906000526020600020905b815481529060010190602001808311612b1f57829003601f168201915b5050505050905087565b600360205260009081526040902080548190612b6190614217565b80601f0160208091040260200160405190810160405280929190818152602001828054612b8d90614217565b8015612bda5780601f10612baf57610100808354040283529160200191612bda565b820191906000526020600020905b815481529060010190602001808311612bbd57829003601f168201915b505050505090806001018054612bef90614217565b80601f0160208091040260200160405190810160405280929190818152602001828054612c1b90614217565b8015612c685780601f10612c3d57610100808354040283529160200191612c68565b820191906000526020600020905b815481529060010190602001808311612c4b57829003601f168201915b505050505090806002018054612c7d90614217565b80601f0160208091040260200160405190810160405280929190818152602001828054612ca990614217565b8015612cf65780601f10612ccb57610100808354040283529160200191612cf6565b820191906000526020600020905b815481529060010190602001808311612cd957829003601f168201915b505050505090806003018054612d0b90614217565b80601f0160208091040260200160405190810160405280929190818152602001828054612d3790614217565b8015612d845780601f10612d5957610100808354040283529160200191612d84565b820191906000526020600020905b815481529060010190602001808311612d6757829003601f168201915b505050505090806004018054612d9990614217565b80601f0160208091040260200160405190810160405280929190818152602001828054612dc590614217565b8015612e125780601f10612de757610100808354040283529160200191612e12565b820191906000526020600020905b815481529060010190602001808311612df557829003601f168201915b505050505090806005018054612e2790614217565b80601f0160208091040260200160405190810160405280929190818152602001828054612e5390614217565b8015612ea05780601f10612e7557610100808354040283529160200191612ea0565b820191906000526020600020905b815481529060010190602001808311612e8357829003601f168201915b5050505050905086565b60606000600160008481526020019081526020016000206040518060e0016040529081600082018054612edc90614217565b80601f0160208091040260200160405190810160405280929190818152602001828054612f0890614217565b8015612f555780601f10612f2a57610100808354040283529160200191612f55565b820191906000526020600020905b815481529060010190602001808311612f3857829003601f168201915b50505050508152602001600182018054612f6e90614217565b80601f0160208091040260200160405190810160405280929190818152602001828054612f9a90614217565b8015612fe75780601f10612fbc57610100808354040283529160200191612fe7565b820191906000526020600020905b815481529060010190602001808311612fca57829003601f168201915b5050505050815260200160028201805461300090614217565b80601f016020809104026020016040519081016040528092919081815260200182805461302c90614217565b80156130795780601f1061304e57610100808354040283529160200191613079565b820191906000526020600020905b81548152906001019060200180831161305c57829003601f168201915b5050505050815260200160038201805461309290614217565b80601f01602080910402602001604051908101604052809291908181526020018280546130be90614217565b801561310b5780601f106130e05761010080835404028352916020019161310b565b820191906000526020600020905b8154815290600101906020018083116130ee57829003601f168201915b5050505050815260200160048201805461312490614217565b80601f016020809104026020016040519081016040528092919081815260200182805461315090614217565b801561319d5780601f106131725761010080835404028352916020019161319d565b820191906000526020600020905b81548152906001019060200180831161318057829003601f168201915b505050505081526020016005820180546131b690614217565b80601f01602080910402602001604051908101604052809291908181526020018280546131e290614217565b801561322f5780601f106132045761010080835404028352916020019161322f565b820191906000526020600020905b81548152906001019060200180831161321257829003601f168201915b50505050508152602001600682018054611e4490614217565b60606000600360008481526020019081526020016000206040518060c001604052908160008201805461327a90614217565b80601f01602080910402602001604051908101604052809291908181526020018280546132a690614217565b80156132f35780601f106132c8576101008083540402835291602001916132f3565b820191906000526020600020905b8154815290600101906020018083116132d657829003601f168201915b5050505050815260200160018201805461330c90614217565b80601f016020809104026020016040519081016040528092919081815260200182805461333890614217565b80156133855780601f1061335a57610100808354040283529160200191613385565b820191906000526020600020905b81548152906001019060200180831161336857829003601f168201915b5050505050815260200160028201805461339e90614217565b80601f01602080910402602001604051908101604052809291908181526020018280546133ca90614217565b80156134175780601f106133ec57610100808354040283529160200191613417565b820191906000526020600020905b8154815290600101906020018083116133fa57829003601f168201915b5050505050815260200160038201805461343090614217565b80601f016020809104026020016040519081016040528092919081815260200182805461345c90614217565b80156134a95780601f1061347e576101008083540402835291602001916134a9565b820191906000526020600020905b81548152906001019060200180831161348c57829003601f168201915b505050505081526020016004820180546134c290614217565b80601f01602080910402602001604051908101604052809291908181526020018280546134ee90614217565b801561353b5780601f106135105761010080835404028352916020019161353b565b820191906000526020600020905b81548152906001019060200180831161351e57829003601f168201915b5050505050815260200160058201805461137690614217565b60606000600160008481526020019081526020016000206040518060e001604052908160008201805461358690614217565b80601f01602080910402602001604051908101604052809291908181526020018280546135b290614217565b80156135ff5780601f106135d4576101008083540402835291602001916135ff565b820191906000526020600020905b8154815290600101906020018083116135e257829003601f168201915b5050505050815260200160018201805461361890614217565b80601f016020809104026020016040519081016040528092919081815260200182805461364490614217565b80156136915780601f1061366657610100808354040283529160200191613691565b820191906000526020600020905b81548152906001019060200180831161367457829003601f168201915b505050505081526020016002820180546136aa90614217565b80601f01602080910402602001604051908101604052809291908181526020018280546136d690614217565b80156137235780601f106136f857610100808354040283529160200191613723565b820191906000526020600020905b81548152906001019060200180831161370657829003601f168201915b5050505050815260200160038201805461373c90614217565b80601f016020809104026020016040519081016040528092919081815260200182805461376890614217565b80156137b55780601f1061378a576101008083540402835291602001916137b5565b820191906000526020600020905b81548152906001019060200180831161379857829003601f168201915b505050505081526020016004820180546137ce90614217565b80601f01602080910402602001604051908101604052809291908181526020018280546137fa90614217565b80156138475780601f1061381c57610100808354040283529160200191613847565b820191906000526020600020905b81548152906001019060200180831161382a57829003601f168201915b5050505050815260200160058201805461386090614217565b80601f016020809104026020016040519081016040528092919081815260200182805461388c90614217565b80156138d95780601f106138ae576101008083540402835291602001916138d9565b820191906000526020600020905b8154815290600101906020018083116138bc57829003601f168201915b505050505081526020016006820180546121de90614217565b60606000600160008481526020019081526020016000206040518060e001604052908160008201805461392490614217565b80601f016020809104026020016040519081016040528092919081815260200182805461395090614217565b801561399d5780601f106139725761010080835404028352916020019161399d565b820191906000526020600020905b81548152906001019060200180831161398057829003601f168201915b505050505081526020016001820180546139b690614217565b80601f01602080910402602001604051908101604052809291908181526020018280546139e290614217565b8015613a2f5780601f10613a0457610100808354040283529160200191613a2f565b820191906000526020600020905b815481529060010190602001808311613a1257829003601f168201915b50505050508152602001600282018054613a4890614217565b80601f0160208091040260200160405190810160405280929190818152602001828054613a7490614217565b8015613ac15780601f10613a9657610100808354040283529160200191613ac1565b820191906000526020600020905b815481529060010190602001808311613aa457829003601f168201915b50505050508152602001600382018054613ada90614217565b80601f0160208091040260200160405190810160405280929190818152602001828054613b0690614217565b8015613b535780601f10613b2857610100808354040283529160200191613b53565b820191906000526020600020905b815481529060010190602001808311613b3657829003601f168201915b50505050508152602001600482018054613b6c90614217565b80601f0160208091040260200160405190810160405280929190818152602001828054613b9890614217565b8015613be55780601f10613bba57610100808354040283529160200191613be5565b820191906000526020600020905b815481529060010190602001808311613bc857829003601f168201915b50505050508152602001600582018054613bfe90614217565b80601f0160208091040260200160405190810160405280929190818152602001828054613c2a90614217565b8015613c775780601f10613c4c57610100808354040283529160200191613c77565b820191906000526020600020905b815481529060010190602001808311613c5a57829003601f168201915b50505050508152602001600682018054611aaa90614217565b828054613c9c90614217565b90600052602060002090601f016020900481019282613cbe5760008555613d04565b82601f10613cd757805160ff1916838001178555613d04565b82800160010185558215613d04579182015b82811115613d04578251825591602001919060010190613ce9565b50613d10929150613d14565b5090565b5b80821115613d105760008155600101613d15565b7f4e487b7100000000000000000000000000000000000000000000000000000000600052604160045260246000fd5b600082601f830112613d6957600080fd5b813567ffffffffffffffff80821115613d8457613d84613d29565b604051601f8301601f19908116603f01168101908282118183101715613dac57613dac613d29565b81604052838152866020858801011115613dc557600080fd5b836020870160208301376000602085830101528094505050505092915050565b60008060008060008060c08789031215613dfe57600080fd5b863567ffffffffffffffff80821115613e1657600080fd5b613e228a838b01613d58565b97506020890135915080821115613e3857600080fd5b613e448a838b01613d58565b96506040890135915080821115613e5a57600080fd5b613e668a838b01613d58565b95506060890135915080821115613e7c57600080fd5b613e888a838b01613d58565b94506080890135915080821115613e9e57600080fd5b613eaa8a838b01613d58565b935060a0890135915080821115613ec057600080fd5b50613ecd89828a01613d58565b9150509295509295509295565b600060208284031215613eec57600080fd5b5035919050565b6000815180845260005b81811015613f1957602081850181015186830182015201613efd565b81811115613f2b576000602083870101525b50601f01601f19169290920160200192915050565b602081526000613f536020830184613ef3565b9392505050565b60008060408385031215613f6d57600080fd5b82359150602083013567ffffffffffffffff811115613f8b57600080fd5b613f9785828601613d58565b9150509250929050565b600080600080600080600060e0888a031215613fbc57600080fd5b873567ffffffffffffffff80821115613fd457600080fd5b613fe08b838c01613d58565b985060208a0135915080821115613ff657600080fd5b6140028b838c01613d58565b975060408a013591508082111561401857600080fd5b6140248b838c01613d58565b965060608a013591508082111561403a57600080fd5b6140468b838c01613d58565b955060808a013591508082111561405c57600080fd5b6140688b838c01613d58565b945060a08a013591508082111561407e57600080fd5b61408a8b838c01613d58565b935060c08a01359150808211156140a057600080fd5b506140ad8a828b01613d58565b91505092959891949750929550565b60e0815260006140cf60e083018a613ef3565b82810360208401526140e1818a613ef3565b905082810360408401526140f58189613ef3565b905082810360608401526141098188613ef3565b9050828103608084015261411d8187613ef3565b905082810360a08401526141318186613ef3565b905082810360c08401526141458185613ef3565b9a9950505050505050505050565b60c08152600061416660c0830189613ef3565b82810360208401526141788189613ef3565b9050828103604084015261418c8188613ef3565b905082810360608401526141a08187613ef3565b905082810360808401526141b48186613ef3565b905082810360a08401526141c88185613ef3565b9998505050505050505050565b6000600019821415614210577f4e487b7100000000000000000000000000000000000000000000000000000000600052601160045260246000fd5b5060010190565b60028104600182168061422b57607f821691505b60208210811415614265577f4e487b7100000000000000000000000000000000000000000000000000000000600052602260045260246000fd5b5091905056fea26469706673582212209365d92d97539dd38b1290c66a9e5e2a55bc3f3e176113f137dafa052a549de464736f6c634300080b0033",
  "immutableReferences": {},
  "source": "pragma solidity >= 0.8.11 <= 0.8.11;\r\npragma experimental ABIEncoderV2;\r\n//evault solidity code\r\ncontract Healthcare {\r\n\r\n    uint public userCount = 0; \r\n    mapping(uint => user) public userList; \r\n     struct user\r\n     {\r\n       string username;\r\n       string password;\r\n       string phone;\r\n       string email;\r\n       string home_address;\r\n       string desc;\r\n       string usertype;\r\n     }\r\n \r\n   // events \r\n   event userCreated(uint indexed _userId);\r\n   \r\n   //function  to save user details to Blockchain\r\n   function saveUser(string memory uname, string memory pass, string memory phone, string memory emailid, string memory homes_address, string memory desc, string memory utype) public {\r\n      userList[userCount] = user(uname, pass, phone, emailid, homes_address, desc, utype);\r\n      emit userCreated(userCount);\r\n      userCount++;\r\n    }\r\n\r\n     //get user count\r\n    function getUserCount()  public view returns (uint) {\r\n          return  userCount;\r\n    }\r\n\r\n    uint public ehrCount = 0; \r\n    mapping(uint => ehr) public ehrList; \r\n     struct ehr\r\n     {\r\n       string username;\r\n       string doctorname;\r\n       string disease_details;\r\n       string report;\r\n       string prescription;\r\n       string ehr_date;       \r\n     }\r\n \r\n   // events \r\n   event ehrCreated(uint indexed _ehrId);\r\n   \r\n   //function  to save EHR details to Blockchain\r\n   function saveEhr(string memory uname, string memory doctor, string memory disease, string memory report, string memory pres, string memory edate) public {\r\n      ehrList[ehrCount] = ehr(uname, doctor, disease, report, pres, edate);\r\n      emit ehrCreated(ehrCount);\r\n      ehrCount++;\r\n    }\r\n\r\n    function updatePrescription(uint i, string memory pres) public { \r\n      ehrList[i].prescription = pres;\r\n   }\r\n\r\n     //get ehr count\r\n    function getEhrCount()  public view returns (uint) {\r\n          return  ehrCount;\r\n    }\r\n\r\n    function getUsername(uint i) public view returns (string memory) {\r\n        user memory doc = userList[i];\r\n\treturn doc.username;\r\n    }\r\n\r\n    function getPassword(uint i) public view returns (string memory) {\r\n        user memory doc = userList[i];\r\n\treturn doc.password;\r\n    }\r\n\r\n    function getPhone(uint i) public view returns (string memory) {\r\n        user memory doc = userList[i];\r\n\treturn doc.phone;\r\n    }\r\n\r\n   \r\n    function getEmail(uint i) public view returns (string memory) {\r\n        user memory doc = userList[i];\r\n\treturn doc.email;\r\n    }\r\n\r\n    function getAddress(uint i) public view returns (string memory) {\r\n        user memory doc = userList[i];\r\n\treturn doc.home_address;\r\n    }\r\n\r\n    function getDescription(uint i) public view returns (string memory) {\r\n        user memory doc = userList[i];\r\n\treturn doc.desc;\r\n    }\r\n\r\n    function getUserType(uint i) public view returns (string memory) {\r\n        user memory doc = userList[i];\r\n\treturn doc.usertype;\r\n    }\r\n\r\n    function getPatient(uint i) public view returns (string memory) {\r\n        ehr memory doc = ehrList[i];\r\n\treturn doc.username;\r\n    }\r\n\r\n    function getDoctor(uint i) public view returns (string memory) {\r\n        ehr memory doc = ehrList[i];\r\n\treturn doc.doctorname;\r\n    }\r\n\r\n    function getDisease(uint i) public view returns (string memory) {\r\n        ehr memory doc = ehrList[i];\r\n\treturn doc.disease_details;\r\n    }\r\n\r\n    function getReport(uint i) public view returns (string memory) {\r\n        ehr memory doc = ehrList[i];\r\n\treturn doc.report;\r\n    }\r\n\r\n    function getPrescription(uint i) public view returns (string memory) {\r\n        ehr memory doc = ehrList[i];\r\n\treturn doc.prescription;\r\n    }\r\n\r\n    function getEhrDate(uint i) public view returns (string memory) {\r\n        ehr memory doc = ehrList[i];\r\n\treturn doc.ehr_date;\r\n    }    \r\n}",
  "sourcePath": "C:\\Users\\Admin\\Desktop\\Blockchain\\hello-eth\\node_modules\\.bin\\contracts\\Healthcare.sol",
  "compiler": {
    "name": "solc",
    "version": "0.8.11+commit.d7f03943.Emscripten.clang"
  },
  "schemaVersion": "3.4.4",
  "updatedAt": "2025-03-25T06:57:15.856Z",
  "networkType": "ethereum",
  "devdoc": {
    "kind": "dev",
    "methods": {},
    "version": 1
  },
  "userdoc": {
    "kind": "user",
    "methods": {},
    "version": 1
  }
}